:1000000090C50000B3C50000B1C50000AFC5000039
:10001000ADC50000ABC50000A9C50000A7C5000024
:10002000A5C50000A3C500000C943B0F9FC50000B0
:100030009DC500009BC5000099C5000097C5000044
:1000400095C5000093C5000091C500008FC5000054
:100050008DC500008BC5000089C5000087C5000064
:1000600085C5000083C5000081C500007FC5000074
:100070007DC500007BC5000079C5000077C5000084
:1000800075C5000073C5000071C500006FC5000094
:100090006DC500006BC5000069C5000067C50000A4
:1000A00065C5000063C5000061C500005FC50000B4
:1000B0005DC500005BC5000059C5000057C50000C4
:1000C00055C5000053C5000051C500004FC50000D4
:1000D0004DC500004BC5000049C5000047C50000E4
:1000E00045C5000043C5000041C500003FC50000F4
:1000F0003DC500003BC5000039C5000037C5000004
:1001000035C5000033C5000031C500002FC5000013
:100110002DC500002BC5000029C5000027C5000023
:1001200025C5000023C5000021C500001FC5000033
:100130001DC500001BC5000019C5000017C5000043
:1001400015C5000013C5000011C500000FC5000053
:100150000DC500000BC5000009C5000007C5000063
:1001600005C5000003C5000001C50000FFC4000074
:10017000FDC40000FBC40000F9C40000F7C4000087
:10018000F5C40000F3C40000F1C40000EFC4000097
:10019000EDC40000EBC40000E9C40000E7C40000A7
:1001A000E5C40000E3C40000E1C40000DFC40000B7
:1001B000DDC40000DBC40000D9C40000D7C40000C7
:1001C000D5C40000D3C40000D1C40000CFC40000D7
:1001D000CDC40000CBC40000C9C40000C7C40000E7
:1001E000C5C40000C3C40000C1C40000BFC40000F7
:1001F000BDC400000C94C01CB9C400007965730034
:100200006E6F002074656D703A2000796573006E22
:100210006F007772697461626C653A2000636F7079
:1002200079006F726967696E616C00636F6E7465E7
:100230006E743A2020004D420073697A653A20209E
:100240002020200064617465206D66643A2000738C
:10025000657269616C3A2020203078007265766999
:10026000733A202020200070726F647563743A2006
:1002700020006F656D3A202020202020006D616EE7
:1002800075663A20202020307800202A20656E7381
:100290007469782076312E352028636F6D70696C13
:1002A000656420323031352D30322D3135403131D9
:1002B0003A3536290D0A2020202863292032303192
:1002C0003520666C616262657267617374002D3EF1
:1002D0002048656C703A205B695D6E666F207C20FB
:1002E0005B725D6F2F7277207C20656E7465722063
:1002F0005B705D617373706872617365207C205BF5
:10030000635D68616E6765207061737370687261A8
:10031000736500416C726561647920696E20656E59
:1003200063727970746564206469736B206D6F64A7
:10033000652E0050726F626C656D3A20746865209E
:10034000656E746572656420706173737068726144
:100350007365206973206E6F7420636F72726563BA
:10036000742E204E6F7420646F696E6720616E7901
:100370007468696E672E0050726573732061206B1C
:10038000657920746F20636F6E74696E75652E2EAB
:100390002E0050617373776F7264204F4B2E205381
:1003A0007769746368696E6720746F20656E637225
:1003B0007970746564206469736B206D6F64652067
:1003C0002865766572797468696E672077696C6CE8
:1003D00020646973636F6E6E656374292E00436FCA
:1003E0006D707574696E67206861736865732E2E11
:1003F0002E00456E7465722070617373706872614F
:1004000073653A0054686973206F6E6C7920776F5A
:10041000726B7320696E20656E63727970746564A7
:10042000206D6F64652E004E6F7420646F696E6777
:1004300020616E797468696E672E005072657373FF
:100440002061206B657920746F20636F6E74696E14
:1004500075652E2E2E0045766572797468696E6713
:100460002077696C6C20646973636F6E6E6563746A
:100470002E00537769746368696E6720746F207209
:100480006561642D6F6E6C792E00507265737320F8
:1004900061206B657920746F20636F6E74696E756F
:1004A000652E2E2E0045766572797468696E672018
:1004B00077696C6C20646973636F6E6E6563742E0C
:1004C00000537769746368696E6720746F20777270
:1004D000697461626C652E007772697461626C6523
:1004E0002E2053776974636820746F20726561648D
:1004F0002D6F6E6C793F205B596E5D007265616493
:100500002D6F6E6C792E2053776974636820746F39
:10051000207772697461626C653F205B794E5D0083
:100520004469736B2073746174653A200050617381
:1005300073706872617365206368616E67696E6766
:1005400020776F726B73206F6E6C7920696E2065F7
:100550006E63727970746564206D6F64652E0045FA
:100560006E74657265642070617373706872617314
:1005700065206973206E6F7420636F727265637497
:100580002E005468652070617373706872617365C2
:100590007320646F6E2774206D617463682E204E23
:1005A0006F74206368616E67696E6720616E79742D
:1005B00068696E672E00446F6E652E00436F6D7024
:1005C0007574696E67206861736865732E2E2E00DE
:1005D0004D617463682E204368616E67696E6720A1
:1005E00074686520706173737068726173652E0042
:1005F000456E74657220746865206E657720706141
:10060000737370687261736520616761696E3A0027
:10061000456E7465722061206E657720706173731A
:100620007068726173653A00436F6D707574696EBE
:1006300067206861736865732E2E2E00456E7465A1
:10064000722063757272656E742070617373706866
:10065000726173653A007772697461626C650072E9
:100660006561642D6F6E6C79004469736B207374DF
:100670006174653A2000486173686564206861733D
:1006800068656420706173737068726173653A2085
:10069000004861736865642070617373706872618B
:1006A00073653A20004D61696E20414553206B65AA
:1006B000793A2000456E63727970746564206D61CB
:1006C000696E20414553206B65793A20006E6F7446
:1006D00020636F6E6E65637465642F636F6D6D75F7
:1006E0006E69636174696E6700696E697469616CD3
:1006F0006973656400284D6963726F2953442073E0
:1007000074617475733A2000427574746F6E207052
:100710007265737365642E000D0A000D0A002C00CB
:100720001E02340220022102220224023400260288
:10073000270225022E0236002D0037003800270040
:100740001E001F002000210022002300240025009D
:1007500026003302330036022E00370238021F0211
:100760000402050206020702080209020A020B023D
:100770000C020D020E020F021002110212021302ED
:100780001402150216021702180219021A021B029D
:100790001C021D022F003100300023022D02350003
:1007A0000400050006000700080009000A000B000D
:1007B0000C000D000E000F001000110012001300BD
:1007C0001400150016001700180019001A001B006D
:1007D0001C001D002F023102300235025203650059
:1007E0006E007300740069007800200073007400CC
:1007F0006F0072006100670065002F0073006500E4
:100800007200690061006C002F006B0065007900C8
:1008100062006F0061007200640020004100560019
:100820005200200073007400690063006B00000038
:10083000180366006C0061006200620065007200CF
:1008400067006100730074000000040309040902DA
:100850007600040100C032080B0002020201000908
:10086000040000010202010005240010010424021A
:10087000060524060001070582030800FF0904019C
:1008800000020A00000007050402100005070583A6
:1008900002100005090402000103010100092111F1
:1008A000010001223F000705810308000509040338
:1008B00000020806500007058502400005070506EE
:1008C0000240000512011001EF020108EB036F2046
:1008D00001000102DC0105010906A101050719E07B
:1008E00029E7150025017501950881029501750814
:1008F00081010508190129059505750191029501E8
:1009000075039101150025FF0507190029FF9506BC
:1009100075088100C00A0D000A0D000A0D000A0DBD
:1009200000546F20646F20616E797468696E67206F
:10093000696E746572657374696E6720776974682F
:1009400020746869732041565220737469636B2C5C
:1009500020796F752073686F756C6420636F6E6E9D
:1009600065637420746F20697420766961207468EF
:1009700065207669727475616C2073657269616C4B
:1009800020706F727420287573696E672061207300
:10099000657269616C207465726D696E616C20703E
:1009A000726F6772616D2C20652E672E20707554F2
:1009B00054592C206D696E69636F6D2C20706963CA
:1009C0006F636F6D206F722073637265656E292E81
:1009D0002020202020202020202020202020202017
:1009E0002020202020202020202020202020202007
:1009F00020202020202020202020202020202020F7
:100A000020202020202020202020202020202020E6
:100A100020202020202020202020202020202020D6
:100A200020202020202020202020202020202020C6
:100A300020202020202020202020202020202020B6
:100A400020202020202020202020202020202020A6
:100A50002020202020202020202020202020202096
:100A60002020202020202020202020202020202086
:100A70002020202020202020202020202020202076
:100A80002020202020202020202020202020202066
:100A90002020202020202020202020202020202056
:100AA0002020202020202020202020202020202046
:100AB0002020202020202020202020202020202036
:100AC0002020202020202020202020202020202026
:100AD0002020202020202020202020202020202016
:100AE0002020202020202020202020202020202006
:100AF00020202020202020202020202020202020F6
:100B000020202020202020202020202020202020E5
:100B100020202020202020202020202020202020D5
:100B2000200011241FBECFEFCDBFDFE3DEBF00E00A
:100B30000CBF18BE19BE1ABE1BBE11E2A0E0B0E287
:100B4000E4E0F7E400E00BBF02C007900D92A2348E
:100B5000B107D9F71BBE17E2A2E4B1E201C01D92B2
:100B6000A130B107E1F776D40C94802349CADB01A8
:100B7000FC0158E0149744E018960E9001924A95B3
:100B8000E1F75A95C1F708958F929F92AF92BF9265
:100B9000CF92DF920F931F93EDB7FEB7B8970FB6C2
:100BA000F894EDBF0FBEFEBF9F938F9331968F01D8
:100BB00049015A016B01C801AAD2BB2011F4AA2035
:100BC00059F0C801B601A1D030E4C30ED11C32E007
:100BD000931AA108B108F1CFC801B601A40115D03C
:100BE0008F919F91B801C3DFEDB7FEB7B8960FB6EE
:100BF000F894EDBF0FBEFEBF1F910F91DF90CF9015
:100C0000BF90AF909F908F900895523090F09F9337
:100C10008F937F936F935F934F9377D04F915F91B3
:100C20006F917F918F919F91525030E4630F711DAE
:100C3000ECCFEDB7FEB70FB6E054F040F894EDBF3F
:100C40000FBEFEBF3196242F26952695269550FB84
:100C500025F9DB01222329F0122E0D9001921A941E
:100C6000E1F730E8032E37E0342329F006943A9573
:100C7000E9F73C91032A01922395293308F421C016
:100C800030E4321B19F011923A95E9F7FF9731974A
:100C9000BF01FF93EF939F938F935F934F9335D053
:100CA0004F915F918F919F91EF91FF91DC01919610
:100CB0003C9132503D9326E03C9130403D932A9543
:100CC000D9F738E3321B21F0112411923A95E9F754
:100CD000DC01909638960D90040E02920D90051E40
:100CE000029236E00D90011C02923A95D9F7F897DE
:100CF000BF010BD0EDB7FEB70FB6FF963196F89453
:100D0000EDBF0FBEFEBF112408954F925F926F9208
:100D10007F928F929F92AF92BF92CF92DF92EF928B
:100D2000FF920F931F93CF93DF934DB75EB79A0156
:100D3000FB0140525140DA010FB6F8944DBF0FBE8F
:100D40005EBF2F933F938F939F93119640E17191D4
:100D50006191319121912D933D936D937D934A95AE
:100D6000B1F740E3142EFD01FF97319701911191E6
:100D700021913191C190D190E190F1906D2D7E2D16
:100D80008F2D9C2D41E0E9D14B015C01B701C601DB
:100D900042E0F9D186269726A826B92673E0F69474
:100DA000E794D794C7947A95D1F78C249D24AE24E8
:100DB000BF24080D191D2A1D3B1D648D758D868D60
:100DC000978D060F171F281F391FC0A8D1A8E2A8AA
:100DD000F3A8B701C60141E0D6D15C014B0142E066
:100DE000D2D186269726A826B92672E0F694E794F3
:100DF000D7947A95D9F78D249E24AF24080D191D18
:100E00002A1D3B1D0D931D932D933D931A9409F0BC
:100E1000AACFFF91EF91EF93FF9390E211901D9273
:100E20009A95E1F79097ED01EEE0F0E1BA9590E444
:100E3000192E4C885D886E887F88688979898A89AF
:100E40009B89C88CD98CEA8CFB8C4622572268225D
:100E500079226095709580959095C622D722E822D8
:100E6000F9224C245D246E247F24F888C988DA880E
:100E7000EB88B601C70142E070D14B015C01B601BD
:100E8000C70143E080D186269726A826B926B70158
:100E9000C60141E078D186269726A826B926480CB7
:100EA000591C6A1C7B1C8C8C9D8CAE8CBF8C480C96
:100EB000591C6A1C7B1C8D909D90AD90BD90480C78
:100EC000591C6A1C7B1C85909590A590B590480C88
:100ED000591C6A1C7B1C688179818A819B818C806A
:100EE0009D80AE80BF8086229722A822B922C88426
:100EF000D984EA84FB846C217D218E219F21862662
:100F00009726A826B9266C817D818E819F816C21D0
:100F10007D218E219F2186269726A826B926C88066
:100F2000D980EA80FB80B601C70142E02CD18B0159
:100F30009C01B701C60143E010D1062717272827D7
:100F400039276F2D7C2D8D2D9E2D42E006D1062751
:100F5000172728273927080D191D2A1D3B1D5CE17D
:100F60006C969A919C835A95E1F7C888D988EA884B
:100F7000FB88C40CD51CE61CF71CC88AD98AEA8AEF
:100F8000FB8A040D151D261D371D088319832A832E
:100F90003B831A9409F04DCFFF91EF9158E0008107
:100FA0001181228133816991799189919991060FFB
:100FB000171F281F391F01931193219331935A95BD
:100FC00071F7319652E066E04081450F4193552715
:100FD00028F44081451F41936A95D1F75F914F9165
:100FE0000FB6F8944DBF0FBE5EBF1124DF91CF91B5
:100FF0001F910F91FF90EF90DF90CF90BF90AF9037
:101000009F908F907F906F905F904F900895982F52
:101010008A4291443771CFFBC0B5A5DBB5E95BC20D
:101020005639F111F159A4823F92D55E1CAB98AAB2
:1010300007D8015B8312BE853124C37D0C55745DD6
:10104000BE72FEB1DE80A706DC9B74F19BC1C16954
:101050009BE48647BEEFC69DC10FCCA10C246F2C2C
:10106000E92DAA84744ADCA9B05CDA88F976525179
:101070003E986DC631A8C82703B0C77F59BFF30B90
:10108000E0C64791A7D55163CA0667292914850A86
:10109000B72738211B2EFC6D2C4D130D385354737C
:1010A0000A65BB0A6A762EC9C281852C7292A1E8B4
:1010B000BFA24B661AA8708B4BC2A3516CC719E82C
:1010C00092D1240699D685350EF470A06A1016C107
:1010D000A419086C371E4C774827B5BCB034B30C44
:1010E0001C394AAAD84E4FCA9C5BF36F2E68EE8219
:1010F0008F746F63A5781478C8840802C78CFAFFD0
:10110000BE90EB6C50A4F7A3F9BEF27871C6DC0177
:10111000E0E2F1E168E275917D936A95E1F7089567
:1011200067E6096A85AE67BB72F36E3C3AF54FA578
:101130007F520E518C68059BABD9831F19CDE05BA4
:101140000000000000000000483038F0592F982FB0
:10115000872F762F652F4850F7CF55278894442343
:1011600039F0661F771F881F991F551F4A95C9F7C9
:10117000652B0895483038F0562F672F782F892F28
:10118000952F4850F7CF55278894442339F09795E9
:1011900087957795679557954A95C9F7952B089543
:1011A000AB01692F782F852F942F089588ED84BF88
:1011B00082E0809350008091510081FFFCCF88ED48
:1011C00084BF81E0809340000895E6E4F2E220E1EC
:1011D000DF011D922A95E9F76083718382839383EF
:1011E000BF0189EE91E20C94E3158F929F92AF922A
:1011F000BF92CF92DF92EF92FF920F931F93CF9304
:10120000DF93EC014A015B01CB01BA01DEDF809183
:1012100042218823A9F08E019401A50160E070E0CD
:1012200080E090E00E941A1320E032E0AE0166E414
:1012300072E289ED91E20E94711680E092E002C0B4
:1012400080E090E0DF91CF911F910F91FF90EF90A0
:10125000DF90CF90BF90AF909F908F900895CF92E6
:10126000DF92EF92FF920F931F93CF93DF938C0146
:101270006A017B01CB01BA01A8DF20E032E0A801BE
:1012800066E472E286E592E20E94EC1580914221CA
:10129000882369F0D701C6019601AD0160E070E0D6
:1012A00080E090E00E94721380E092E002C080E053
:1012B00090E0DF91CF911F910F91FF90EF90DF9021
:1012C000CF9008958EEC92E073C38AE892E070C3E9
:1012D0008F929F92AF92BF92CF92DF92EF92FF9246
:1012E0000F931F93CF93DF93CDB7DEB7A097CDBFFA
:1012F000DEBF6A0148E0649F90011124442737FD56
:101300004095542FBC01C6013FDC560187EEE82E04
:1013100083E0F82E8E010F5F1F4F480120E031E07F
:1013200040E050E0B501C8012FDC81E0E81AF10887
:1013300031F09A2D8B2D5801092F182FEFCF80E215
:10134000F401D60101900D928A95E1F7A096CDBFE8
:10135000DEBFDF91CF911F910F91FF90EF90DF9053
:10136000CF90BF90AF909F908F9008950F938DE78F
:1013700092E006D361E070E089E292E2EAD582E78A
:1013800092E0FED28AE292E20BD387E692E0F8D2B4
:101390008DE292E205D38CE592E0F2D261E070E05A
:1013A00083E392E2D6D58FE492E0EAD261E070E086
:1013B00084E392E2CED584E492E0E2D280913922B5
:1013C000CCD58FE2D3D280913822F4D589E392E054
:1013D000D7D220913A2230913B2240913C22509129
:1013E0003D2260913E2270913F2280914022909157
:1013F000412204E10E94E822B901CA01DFD586E357
:1014000092E0D6D28BE292E0BBD280914222882336
:1014100019F082E292E002C08DE192E0C9D282E14D
:1014200092E0AED280914322882319F08FE092E0BF
:1014300002C08BE092E0A4D283E092E0A1D280913E
:101440004422882319F080E092E002C08CEF91E002
:101450000F91AEC280E290E0A0E0B0E08093DC2289
:101460009093DD22A093DE22B093DF229FDE02D391
:101470000E944A12882349F089E292E20E94CA132C
:10148000882319F081E08093422140E150E060E23E
:1014900070E086E592E20E9439234FD210E0C0E06E
:1014A000D2E090E1B92E03D31AD36B017C016730EF
:1014B00071058105910530F0C11106C088E097E003
:1014C00077D202C0CC2341F0C1E087E0C816D10436
:1014D000E104F10408F4C0E06FD2F82E882369F02B
:1014E00011110BC09FEFA1EEB4E09150A040B040AD
:1014F000E1F700C00000E9DEE5DE17D2892B09F430
:101500000EC217D28936910579F02CF483369105F5
:1015100009F451C003C28037910509F458C18237DC
:10152000910509F4EDC0FAC1D0DE85EF96E028D22E
:1015300080914221882329F089EE96E039D216DF86
:1015400003C08DEC96E034D28091DA22813049F4E8
:1015500084EB96E015D260E170E086E592E2F9D482
:10156000DEC18091DA22823009F0D9C185EA96E0A5
:1015700007D260E170E086E592E2EBD481E996E083
:10158000FFD160E270E085E591E2E3D486E796E082
:10159000F7D160E270E089E092E2DBD489E696E080
:1015A000EFD18091DB22882319F08FE596E0B4C15A
:1015B00086E596E0B1C18091DA22823009F09DC0C3
:1015C0008CE396E0F5D141E064E670E085E791E2D6
:1015D00090D388E296E0ECD169D305E711E2F801F7
:1015E00001900020E9F73197E557F14246E652E2D3
:1015F0006E2FC8016DDEA80160E286E692E268DE29
:1016000040E250E069E072E2C8010E9413236C01DD
:1016100044E650E06FEF70E0C8010E942923CD2816
:1016200009F068C080E196E0C3D141E064E670E073
:10163000C8015FD380EF95E0BBD141E064E670E084
:1016400086E692E256D366E672E2C8010E94302333
:101650006C0144E650E06FEF70E086E692E20E9493
:101660002923CD2809F043C080ED95E0A1D18CEB72
:1016700095E09ED11BD3F80101900020E9F7BF014E
:10168000615071096557714245E551E2C80120DE9C
:1016900044E650E06FEF70E0C8010E94292349E062
:1016A00052E260E285E591E213DEE6E5F2E2A6E6CB
:1016B000B2E28B2D01900D928A95E1F766E672E217
:1016C00085E591E20E94E31540E150E060E270E0C0
:1016D00086E692E20E94542340E250E060E070E02F
:1016E00089E092E20E94542386EB95E015C182E8DE
:1016F00095E012C18FE595E00FC18DE295E00CC138
:101700008091DA22823009F05FC080E295E038D122
:101710008091DB22882319F08CEF94E002C088EDE1
:1017200094E046D1D6D205D19091DB228F7D9923CA
:1017300021F1893509F045C081EC94E021D185EA99
:1017400094E036D18AE894E01BD1C3D20E944E1CAB
:101750001092DB22FFEF27EA81E6F1502040804023
:10176000E1F700C000000E94891C9FEFA7E8B3E1E9
:101770009150A040B040E1F7C9C08E3411F182E72A
:1017800094E0FED086E594E013D18BE394E0F8D0AA
:10179000A0D20E944E1C81E08093DB22EFEFF7EA9B
:1017A00021E6E150F0402040E1F700C000000E9437
:1017B000891C8FEF97E8A3E181509040A040E1F7AA
:1017C000A5C087E294E0A8C084E094E0A5C0809121
:1017D000DA22813009F09EC082EF93E0E9D041E047
:1017E00064E670E085E791E284D28EED93E0E0D08C
:1017F0005DD2E5E7F1E2DF010D900020E9F7BD01E0
:10180000615071096557714245E551E2CF0160DDD4
:1018100049E052E260E285E591E25ADD44E650E0BB
:101820006FEF70E085E791E20E94292300E010E06D
:1018300089E0C82E82E2D82EC8010E944423F60116
:1018400091916F0189136EC00F5F1F4FF0E000325E
:101850001F0791F769ED71E285E591E20E94431659
:1018600066E572E289ED91E20E94E81569ED71E2A8
:1018700086E592E20E94431620E830E040E050E026
:1018800066E572E289EE91E27FD982E993E090D039
:1018900087E793E075D01DD2D093DA2281E0809360
:1018A000DB22809142218823E9F020913A22309175
:1018B0003B2240913C2250913D2260913E2270910A
:1018C0003F22809140229091412209E00E94E8222B
:1018D00089019A010093DC221093DD222093DE22FD
:1018E0003093DF220E944E1C2FEF87EA91E62150B1
:1018F00080409040E1F700C000000E94891CAFEFDB
:10190000B7E8E3E1A150B040E040E1F700C00000DB
:1019100014D005C083E193E04BD001C0D3DCC6D125
:101920001F2DC1CD83E393E0F7CF89E490E20C94BF
:10193000091E89E490E20C94541E0F931F93CF93D9
:10194000DF9389E490E20E94091E8C01C0E0D0E0A0
:10195000C017D10734F489E490E20E94541E219606
:10196000F7CFDF91CF911F910F910895682F89E4F0
:1019700090E20C94831DBC0189E490E20C945E1DFE
:10198000CF93DF93EC01CE01FE012491222329F0B5
:101990002196FC018491EADFF6CFDF91CF91089583
:1019A000BC0189E490E20E945E1D8BE197E0E8CFE4
:1019B000E7DF88E197E0E4CF8091592081700895B6
:1019C00080E18093550080915000806180935000A9
:1019D0008091510084FFFCCF2FB7F89434E088ED5C
:1019E00090E0A0E4B0E01BBEFD0184BF30832FBFB8
:1019F0008FE39FE10197F1F700C000008091400064
:101A0000809150008260809350008091510081FF4E
:101A1000FCCF809156008460809356008BE18093C8
:101A2000650087EB8093660082E08093CA01EDE158
:101A3000F0E0E491E0936200ECE1F0E0E491E09307
:101A400063001092CA0181E08093600097E0909358
:101A5000A2009EE090938106909386068093820672
:101A600088E1809397060E94891CDCD180E28093F4
:101A7000C00008951092CA221092CB2286E0ECECAE
:101A8000F2E2DF011D928A95E9F71092D2221092BC
:101A9000D52281E08093DB228093DA2291DFE0E897
:101AA000F6E08EE0868382E08583789408958091C5
:101AB000880680FD11C080914B2181110FC00AD290
:101AC00060934721709348218093492190934A2144
:101AD00081E080934B21089510924B2108950F933C
:101AE0001F9380914B21882371F0F4D100914721FD
:101AF000109148212091492130914A21601B710B9E
:101B0000820B930B03C060E070E0CB011F910F913B
:101B10000895E0E8F6E08EE086838CE08583089502
:101B2000E0E8F6E08EE0868382E085830895CF9337
:101B300089E390E20E944720C82F89E490E20E9446
:101B4000391DC82380E090E20E9454219091C8047E
:101B500090689093C804CC2321F0882311F084E08E
:101B600001C08AE09EE0909386068E708093850681
:101B7000CF91089589E490E20E94AB1E89E390E240
:101B80000E94491F80E090E20C9424213AC3809186
:101B9000472090914820009729F001978093472093
:101BA0009093482008950F931F938091CB22882310
:101BB000A1F0ECECF2E280E090E04191D901A80FB5
:101BC000B91F12964C93019686309105B1F780911A
:101BD000D222F90180831092CB2288E090E0F801B4
:101BE0008083918380E01F910F9108959091CB2283
:101BF000911108C08093CC226093D22281E080931F
:101C0000CB22089580E008950F931F938091D522F1
:101C1000882309F448C08091CB22811144C05AD155
:101C2000009143211091442120914521309146217A
:101C3000601B710B820B930B64307105810591055C
:101C400090F1E091D322F091D422CF0101968093BC
:101C5000D3229093D4226081611103C01092D522C7
:101C600022C06A3011F06D3019F460E088E211C0D2
:101C700080EE860F8F35B8F470E060527109660F00
:101C8000771FFB01E25EF84F8491FB01E15EF84FA4
:101C90006491ACDF1FD16093432170934421809302
:101CA0004521909346211F910F91089580E090E285
:101CB0000E94712189E490E20E94EE1D89E390E286
:101CC0000E945A200E94F4178091D52281119CCF46
:101CD00008952BDE892B61F4E9DFE9DE2FEF89EF30
:101CE00090E0215080409040E1F700C00000F1CF2B
:101CF0000895BF92CF92DF92EF92FF920F931F93BE
:101D0000CF93DF936C018B01B42EC0E0D0E0015083
:101D100011090BDE892BF9F00CDE9C0133272D30E5
:101D2000310529F12F37310519F02830310529F413
:101D300021978EE391E21FDE0EC0C017D10758F441
:101D40007E012FEFE21AF20ACC0DDD1D8883B1105F
:101D50008AE20CDEE701AADFAADE8FEF99EF20E02E
:101D6000815090402040E1F700C00000D2CFF60142
:101D7000EC0FFD1F10828AE0F9DD8DE0F7DDCE016A
:101D8000DF91CF911F910F91FF90EF90DF90CF9057
:101D9000BF900895F90180818093CA220895292F68
:101DA000332723303105B9F05CF42130310569F176
:101DB0002230310579F586E790E02EE438E02EC038
:101DC00021323105E9F02232310521F58FE390E02F
:101DD00026ED38E023C099278130910541F082300B
:101DE000910541F0892BB1F4EAE4F8E005C0E0E3A5
:101DF000F8E002C0ECEDF7E0849190E09F010EC0A6
:101E000089E090E02DE938E009C082E190E024EC1F
:101E100038E004C080E090E020E030E0FA01208368
:101E2000318308951092D6221092D7221092D82290
:101E30001092D92288ED84BF8091500084608093F5
:101E4000500085E08093430081E0809300048091FE
:101E5000010480FDFCCF8AE090E080930A04909317
:101E60000B048091020483608093020410920804A2
:101E70001092090408951F920F920FB60F92112429
:101E800008B60F9218BE09B60F9219BE8F939F9392
:101E9000AF93BF938091D6229091D722A091D82260
:101EA000B091D9220196A11DB11D8093D6229093A5
:101EB000D722A093D822B093D922BF91AF919F91FE
:101EC0008F910F9009BE0F9008BE0F900FBE0F901C
:101ED0001F9018956091D6227091D7228091D822B8
:101EE0009091D92208951F93CF93DF93182F1F70DD
:101EF00082958F7020E3280FDAE06D2F0E949F22D9
:101F0000C7E08C9F200D1124822F30DD20E3210FAC
:101F1000812F6D2F0E949F228C9F200D1124822FD4
:101F2000DF91CF911F9122CD0F931F93CF93DF931A
:101F30008B01EC01080F191FC017D10729F08991F7
:101F4000D2DF80E213DDF8CFDF91CF911F910F91A7
:101F50000895EADF8EE199E013CDEF92FF920F939F
:101F60001F93CF93DF93082FC3E0D0E020E014E667
:101F70008AE0E82E802F612F0E949F22F82E811187
:101F800004C0211102C0113021F480E38F0DEEDC7A
:101F900021E0F19E00191124812F6E2D0E949F22B5
:101FA000182F219739F7DF91CF911F910F91FF9053
:101FB000EF900895D2DF8BE199E0E2CC2F923F922F
:101FC0004F925F926F927F928F929F92AF92BF9249
:101FD000CF92DF92EF92FF921F93CF93DF931F92E6
:101FE000CDB7DEB74B015C018AE0282E312C10E022
:101FF000C12C9AECD92E9AE9E92E9BE3F92E2AE01E
:10200000422E512C612C712CC501B401A7019601FF
:102010000E94AB22211108C0111106C081E0C81630
:10202000D104E104F10431F480E3820F29839EDCC2
:1020300011E02981A22FB0E0A70196010E9495220C
:10204000861A970AA80AB90AC701B601A301920124
:102050000E94AB2269017A01E1E02E1A3108A1F653
:102060000F90DF91CF911F91FF90EF90DF90CF9075
:10207000BF90AF909F908F907F906F905F904F90A8
:102080003F902F9008954F925F926F927F929F9210
:10209000AF92BF92CF92DF92EF92FF920F931F9376
:1020A000CF93DF93CDB7DEB7D250CDBFDEBF8C016B
:1020B000962E61110CC08091DB22882341F0809123
:1020C0006620807F87608093662087E22CC0F801BD
:1020D000C0A0D78CE68CF58CA3A0B2A08091DA22A8
:1020E000823069F48091DC229091DD22A091DE2281
:1020F000B091DF22C816D906EA06FB0668F4809183
:10210000DA22813031F4F0E2CF16D104E104F10497
:1021100018F42601370119C080916620807F856000
:102120008093662081E2809370201092712055C0C8
:102130008091DA22992019F1813071F4C2017FD4A3
:102140008FEF481A580A680A780AC2018C199D094B
:102150008A159B0568F328C08091DA22823081F7C6
:10216000B301A201CE01019640D840E050E060E00A
:1021700072E0CE0101968ED70E943D1AE1CF8130E8
:1021800061F18091DA228230D9F640E050E060E0DF
:1021900072E0CE010196CBD70E94561AB301A2017C
:1021A000CE0101965CD8CCCFA50160E070E089E05B
:1021B000440F551F661F771F8A95D1F7F801848950
:1021C0009589A689B789841B950BA60BB70B848BC1
:1021D000958BA68BB78B81E001C080E0DE5FCDBF21
:1021E000DEBFDF91CF911F910F91FF90EF90DF90B5
:1021F000CF90BF90AF909F907F906F905F904F90E7
:102200000895CF92DF92EF92FF920F931F93CF9397
:10221000DF93EC018B8D8F31A0F48D3108F0D5C0A8
:102220008231F1F038F4882309F4CFC0833009F407
:1022300045C0D0C08A3109F4A8C08B3109F4C5C0AB
:10224000C9C0883209F49BC020F4853209F457C014
:10225000C1C08A3209F491C08F3209F4B6C0BAC045
:10226000EF8CFE8C8C8D837019F48D8D882341F05A
:1022700080916620807F85608093662084E2B1C073
:10228000870185E2E816F10410F004E210E040E076
:1022900050E0B8018CED90E2FDD660E070E0C7013F
:1022A000801B910BB2D60E943D1A8C899D89AE8904
:1022B000BF89801B910BA109B10982C0EF8CFE2C54
:1022C00082E18E1510F482E1F82E0F2D10E040E02F
:1022D00050E0B80184E690E2DDD68E2D90E060E01B
:1022E00070E0801B910B91D60E943D1A8C899D89CC
:1022F000AE89BF898F199109A109B10961C0809187
:10230000DA228230C1F4C090DC22D090DD22E0904D
:10231000DE22F090DF2281E0C81AD108E108F1083E
:102320008F2D0E94751A8E2D0E94751A8D2D0E9478
:10233000751A8C2D0AC080E00E94751A80E00E94F8
:10234000751A80E00E94751A8FE10E94751A80E06C
:102350000E94751A80E00E94751A82E00E94751A28
:1023600080E00E94751A0E943D1A8C899D89AE8971
:10237000BF890897A109B10923C060E001C061E0ED
:10238000CE0181DE8823E9F131C080E00E94751A18
:1023900080E00E94751A8091DB22882311F080E88A
:1023A00001C080E00E94751A80E00E94751A0E94A8
:1023B0003D1A8C899D89AE89BF890497A109B1090D
:1023C0008C8B9D8BAE8BBF8B11C01C8A1D8A1E8A85
:1023D0001F8A0CC080916620807F85608093662074
:1023E00080E280937020109271200BC08091662053
:1023F000807F80936620109270201092712081E07F
:1024000001C080E0DF91CF911F910F91FF90EF907D
:10241000DF90CF9008958093C3088091C20887FF12
:10242000FCCF8091C30808951F93CF93DF9300D012
:102430001F92CDB7DEB7182F8FEF4C835B836A8373
:102440007983E9DF812F8064E6DF7981872FE3DFFD
:102450006A81862FE0DF5B81852FDDDF4C81842F51
:10246000DADF112321F0183031F487E801C085E963
:10247000D2DF1AE004C08FEFFBCF115021F08FEFB5
:10248000CADF8F3FD1F32496CDBFDEBFDF91CF915E
:102490001F910895CF92DF92EF92FF920F931F93B7
:1024A000CF93DF9380E28093410680E880934106DA
:1024B00081E08093210690E1909341069093450638
:1024C00090E4909342068093250682E080938606EE
:1024D00083E58093C0081092C108109254211AE03D
:1024E0008FEF99DF1150E1F781E08093260682E0BB
:1024F00080938506C0E0D2E040E050E0BA0180E081
:1025000093DF082F813019F02197B1F74DC04AEAC7
:1025100051E060E070E088E087DF82FD13C08FEF5C
:102520007ADF8FEF78DF8FEF76DF80FF6AC08FEF83
:1025300072DF8A3A09F065C082E080935421C0E0DE
:10254000D0E821C040E050E0BA0187E36DDF40E011
:1025500050E0BA0189E268DF82FDF1CF0093542197
:10256000EECF81FD16C0C12CD12C760140E050E0A9
:10257000BA0187E359DFB701A60189E255DF80FF81
:102580001AC0219789F080915421982F937049F7B0
:1025900006C0C12CD12CE12C80E4F82EE7CF40E01E
:1025A00050E0BA0181E0EACF81E08093250682E025
:1025B0008093860635C0C0915421C1FF14C040E00D
:1025C00050E0BA018AE330DF811115C08FEF23DFBD
:1025D00086FF03C0C460C09354218FEF1CDF8FEFD0
:1025E0001ADF8FEF18DF40E052E060E070E080E13A
:1025F0001BDF882341F081E08093250682E08093F1
:10260000860610E00DC081E08093250682E080936D
:1026100086068091C0088C7780688093C00811E09E
:10262000812FDF91CF911F910F91FF90EF90DF905D
:10263000CF9008958F929F92AF92BF92CF92DF92E8
:10264000EF92FF920F931F93CF93DF9349015A01AB
:1026500081E08093260682E0809385068091542154
:10266000B501A40182FD07C089E0440F551F661F14
:10267000771F8A95D1F781E1D7DE882341F081E089
:102680008093250682E08093860680E01EC08FEF4F
:10269000C2DE8E3FE1F7E801E12CF12C8FEFBBDECB
:1026A00089938FEFE81AF80AE11482E0F806B1F78F
:1026B0008FEFB1DE8FEFAFDE81E08093250682E001
:1026C000809386068FEFA7DE81E0DF91CF911F9187
:1026D0000F91FF90EF90DF90CF90BF90AF909F90C1
:1026E0008F9008958F929F92AF92BF92CF92DF9278
:1026F000EF92FF920F931F93CF93DF9349015A01FB
:1027000081E08093260682E08093850680915421A3
:10271000B501A40182FD07C089E0440F551F661F63
:10272000771F8A95D1F788E17FDE882341F081E029
:102730008093250682E08093860680E01EC08EEF9F
:102740006ADEE801E12CF12C899165DE8FEFE81A51
:10275000F80AE11482E0F806B9F78FEF5CDE8FEF3C
:102760005ADE8FEF58DE8F3FE1F755DE81E0809330
:10277000250682E08093860681E0DF91CF911F914C
:102780000F91FF90EF90DF90CF90BF90AF909F9010
:102790008F9008956F927F929F92AF92BF92CF9247
:1027A000DF92EF92FF920F931F93CF93DF931F92CD
:1027B000CDB7DEB73C01009709F431C18DE1F301DB
:1027C00011928A95E9F701E00093260612E0109332
:1027D000850640E050E0BA018AE026DE882329F031
:1027E00000932506109386061AC18FEF14DE8E3FE4
:1027F000E1F7D62C830150E6E52EF12C902F9D19A0
:102800008FEF998308DE9981983030F49330E0F4AB
:10281000911117C0F30116C09D3028F49930B8F417
:10282000F301828731C09D3059F19E3069F5282F20
:1028300022952F70F3019785922B97878F70808B4D
:1028400023C0F801808320C0F80181831DC090E07F
:10285000A0E0B0E00E2C04C0880F991FAA1FBB1F78
:102860000A94D2F7F3014385548565857685482B14
:10287000592B6A2B7B2B438754876587768704C047
:102880008295807FF30187870F5F1F4FF8E0EF1A73
:10289000F10880EDE8168FEFF80609F0AFCF40E0C1
:1028A00050E0BA0189E0C0DD882339F081E08093EF
:1028B000250682E080938606B2C08FEFACDD8E3FA6
:1028C000E1F7D12CB12CE12CF12CC12C912CAA24B4
:1028D000A3948FEFA0DDD11007C0B82EB294B694A8
:1028E000B69443E0B4228FC09EE0D91215C086FF93
:1028F00002C0F301A18E85FF02C0F301A28E84FF06
:1029000002C0F301A38E8C7090E095958795959504
:102910008795F301848F77C0F1E0BF1227C097E05D
:10292000D91631F0D91640F0E9E0ED1510F404C0E5
:102930008F73FE2CEE24E82AF9E0DF1264C08FEFDB
:10294000E81AF80A970140E050E060E070E080E0AB
:1029500090E003E10E94CD22F301218B328B438B67
:10296000548B658B768B878B908F4DC0B1104BC08D
:10297000F7E0DF16B1F1FD1560F095E0D91671F1C1
:10298000E6E0DE1240C08370E82EF12CFE2CEE242F
:102990003AC0F9E0DF16A1F1DF1648F19AE0D9124A
:1029A00032C0881F8827881FC82A870120E030E0AE
:1029B000892D90E08C0D911D029604C0000F111F0F
:1029C000221F331F8A95D2F7F301018B128B238BC1
:1029D000348B158A168A178A108E15C08F70982E20
:1029E00012C0E82AEE0CFF1CEE0CFF1C0CC08295F6
:1029F000869586958370E82AEFEFEE1AFE0A03C0EB
:102A00008370C82ECC0CD394F2E1DF1262CF81E048
:102A10008093250682E08093860681E001C080E0F5
:102A20000F90DF91CF911F910F91FF90EF90DF906A
:102A3000CF90BF90AF909F907F906F900895CF926E
:102A4000DF92EF92FF920F931F93CF93DF93CDB757
:102A5000DEB7D250CDBFDEBF9C01CE01019640E073
:102A600052E0FC01BA01119261507040E1F723304D
:102A70003105C0F42130310508F52EE3E0E0F1E244
:102A8000DC0101900D922A95E1F725E5C150DE4F5A
:102A90002883CF5FD1402AEAC050DE4F2883C05040
:102AA000D2405AC02330310549F520E6E6E7F0E28E
:102AB000DC0101900D922A95E1F74EC028EF2983A1
:102AC0006FEF6A836B834091D0205091D1209A019F
:102AD00036952795240F30E0FC01E20FF31F40FFED
:102AE00004C04081406F408301C06083E2E0F0E0B9
:102AF000EC0FFD1FE20FF31F60832EC04091D0202A
:102B00005091D1204150504C440F551F440F551F38
:102B10002417350709F521E239E06901EE24D7FCD5
:102B2000E094FE2CDC0140E050E0BA018A019B01F8
:102B30000C0D1D1D2E1D3F1D0BB62BBFF80107915F
:102B40000BBE0D934F5F5F4F6F4F7F4F4115E2E01C
:102B50005E076105710551F740E050E060E072E00A
:102B600099D28BD4DE5FCDBFDEBFDF91CF911F91B5
:102B70000F91FF90EF90DF90CF90089520E1FC013E
:102B80003191CF013093C3002150C9F7FB0180E19F
:102B900091919093C2008150D9F74093C0008091E9
:102BA000C1008178E1F38091C10087FD08C0FB017D
:102BB00080E19091C20091938150D9F702C080E0EA
:102BC000089581E008954091C0004F764068D6CFC7
:102BD0004091C0004069D2CFCF93F901EF70FF2739
:102BE000EF2B09F04CC0FB0160E171917093C200C2
:102BF0006150D9F76091C0006B7A64646093C00043
:102C0000BA0140E050E04217530790F5FC01A0E103
:102C1000B191B093C300A150D9F7E0E0F0E0DB013F
:102C2000AE0FBF1FAC91A093C2003196E031F10509
:102C3000B1F7E091C100E178E1F3E091C100E7FD77
:102C400011C0E0E0F0E0C091C200DB01AE0FBF1F99
:102C5000CC933196E031F105B1F7405F5F4F605F93
:102C60007F4FD1CF8091C0008B7B8093C00007C085
:102C70008091C0008B7B8093C000CA0102C080E0BD
:102C800090E0CF91089520E22093C00020E1FC0164
:102C90003191CF013093C3002150C9F780E11092E8
:102CA000C2008150E1F78091C0008F7680688093E8
:102CB000C0008091C1008178E1F38091C10087FD5F
:102CC0000BC0FB0180E19091C30091938150D9F733
:102CD00081E08093C100089580E88093C10080E086
:102CE00008957F928F929F92AF92BF92CF92DF9280
:102CF000EF92FF920F931F93CF93DF93CDB7DEB781
:102D0000A097CDBFDEBF5C014901C9018F70992733
:102D1000892BB9F580E1FB01DE01119601900D923E
:102D20008A95E1F78A01E12CF12C80E1782ECE0121
:102D300041966C01E814F90410F5F801D601872DCD
:102D400001900D928A95E1F7B801C50141DFFE01BE
:102D50003196D80191918C9189278D93EC15FD05C1
:102D6000C9F7F601DE011196872D01900D928A9523
:102D7000E1F790E1E90EF11C005F1F4FDBCFC701C7
:102D800002C080E090E0A096CDBFDEBFDF91CF9182
:102D90001F910F91FF90EF90DF90CF90BF90AF9079
:102DA0009F908F907F9008950F931F93CF93DF9301
:102DB000CDB7DEB7EA97CDBFDEBF05EE12E285D311
:102DC000F80181938F01F2E20D3E1F07C1F70E94C7
:102DD000BA0DEED3882309F4F9C08091E5229091D1
:102DE000E622953009F471C030F4913069F168F051
:102DF000933051F1EBC0983009F4C4C0993009F414
:102E0000CAC0963009F0E2C074C0803891F08238B0
:102E100009F0DCC08091E9228F7077D3E091EF2236
:102E2000F091F022118112FB112710F980E06DD38F
:102E300006C01091E1228091E22281111260D1D36B
:102E4000812F53D380E0A3C0282F2D7F09F0BEC06F
:102E5000882319F0823061F0B9C08091E722813077
:102E600009F0B4C0933009F080E08093E22229C0D9
:102E70008091E722811125C01091E9221F7009F489
:102E8000A5C0812F42D38091E622833011F4D5D39F
:102E900018C0A091EF22B091F02211968C91119759
:102EA0008B7F11968C9324E8129FF0011124ED5C26
:102EB000FC4D1082E091EF22F091F02280818E7F14
:102EC000808380E022D38DD364C081117FC01091B4
:102ED000E7221F7786D388D446D38823E9F310935B
:102EE000C304112311F083E001C082E08093E42247
:102EF0006DC08058823008F069C08091E7229091BF
:102F0000E8228C3DE3E09E0761F583E08A838AE353
:102F100089834FB7F894DE01139620E038E052E041
:102F20005093CA01E32FF0E0E4911092CA0120FF10
:102F300003C0E295EF703F5FEF708E2F90E0EA30B4
:102F400010F0C79601C0C0968D939D932F5F2C31D2
:102F500039F74FBF46D36AE370E0CE01019634D112
:102F60000FC0AE014F5F5F4F6091E9220E94CF0E0C
:102F70008C01009759F135D3B80189819A81FFD12D
:102F800095D224C0803811F52CD38091E022ADD2A7
:102F900074D22AD41BC0811119C08091E7228230DB
:102FA000A8F41FD38091E7228093E0221DD4809162
:102FB000E022811104C08091C304882311F084E0D1
:102FC00001C081E08093E4220E94970DF1D2882312
:102FD00011F007D332D3EA96CDBFDEBFDF91CF9198
:102FE0001F910F9108950895CF938091E422882333
:102FF00051F0C091F12280E088D2DAD28111D4DE82
:103000008C2FCF9182C2CF910895EF92FF920F93B0
:103010001F93CF93DF93EC018B01FDD3811133C05C
:103020000115110529F0F80180819181C81BD90B88
:10303000E12CF12C209731F18091ED229091EE223C
:10304000FC01EF5BFF4F2081FC01E05CFF4F8081C2
:10305000281788F012D20115110549F0F801808176
:1030600091818E0D9F1D8083918385E00CC0D3D309
:10307000882301F308C080E038D22197FFEFEF1AD0
:10308000FF0AD8CF80E0DF91CF911F910F91FF9081
:10309000EF900895CF92DF92EF92FF920F931F93DC
:1030A000CF93DF937C018B01EA01B5D3811136C048
:1030B000209731F088819981081B190BE80EF91EC1
:1030C000C12CD12C0115110541F18091ED22909177
:1030D000EE22FC01EF5BFF4F2081FC01E05CFF4F23
:1030E0008081281780F0C9D17FDF209741F0888147
:1030F00099818C0D9D1D8883998385E00FC08BD3AA
:10310000882301F30BC0F70181917F01EED10150BB
:103110001109FFEFCF1ADF0AD5CF80E0DF91CF9101
:103120001F910F91FF90EF90DF90CF900895CF9275
:10313000DF92EF92FF920F931F93CF93DF937C0167
:103140008B01EA0168D3811136C0209731F0888164
:103150009981081B190BE80EF91EC12CD12C011501
:10316000110541F18091ED229091EE22FC01EF5B7F
:10317000FF4F2081FC01E05CFF4F8081281780F029
:1031800095D132DF209741F0888199818C0D9D1D6A
:103190008883998385E00FC03ED3882301F30BC059
:1031A00094D1F70181937F0101501109FFEFCF1AEC
:1031B000DF0AD5CF80E0DF91CF911F910F91FF9073
:1031C000EF90DF90CF900895DF92EF92FF920F93F0
:1031D0001F93CF93DF93182F092FEB018091F122DA
:1031E000806893D12091EB223091EC222C173D077F
:1031F00020F0209719F441D101C0E901E12EF02E11
:10320000D12C209709F442C08091E422811102C0A0
:1032100082E04EC0853011F483E04AC0C9D18823D2
:1032200011F081E045C0ABD181113EC09CD1882313
:1032300041F32091F1228091ED229091EE22FC0148
:1032400027FF05C0EF5BFF4F008110E015C0E05C79
:10325000FF4F0081FC01EF5BFF4F808110E0081BF6
:1032600011090AC00830110548F4F70181917F0166
:103270003CD121970F5F1F4F2097A1F7DD24D394F6
:103280000830110509F0D12CF8D0BBCFD110BCCF3C
:103290000BC08091E422882309F4BACF853009F469
:1032A000BBCF86D18111BDCF6AD1882391F380E055
:1032B000DF91CF911F910F91FF90EF90DF900895D4
:1032C000EF92FF920F931F93CF93DF93F82EE92E87
:1032D0008B018091F1228F7718D10115110509F426
:1032E000E5D00115110509F43CC08091E42281115B
:1032F00002C082E03DC0853011F483E039C058D16E
:10330000811133C03CD1882381F3CF2DDE2DFC2EDB
:10331000ED2E8091F1224091ED225091EE22FA01A2
:1033200087FF05C0EF5BFF4F208130E00AC0E05C03
:10333000FF4F2081FA01EF5BFF4F808130E0281BB7
:103340003109232B69F2C1D08993FC2EED2E015057
:103350001109E9F6C5CF8091E422882351F2853026
:1033600061F201D18823B9F302C081E001C080E09D
:10337000DF91CF911F910F91FF90EF900895DF9211
:10338000EF92FF920F931F93CF93DF93182F092F84
:10339000EB018091F1228068B8D02091EB2230912E
:1033A000EC222C173D0720F0209719F466D001C0BD
:1033B000E901E12EF02ED12C209709F444C0809130
:1033C000E422811102C082E050C0853011F483E014
:1033D0004CC0EED0882311F081E047C0D0D08111DD
:1033E00040C0C1D0882341F32091F1228091ED2289
:1033F0009091EE22FC0127FF05C0EF5BFF4F00819B
:1034000010E017C0E05CFF4F0081FC01EF5BFF4F55
:10341000808110E0081B11090CC00830110558F418
:10342000F701849162D0FFEFEF1AFF0A21970F5F37
:103430001F4F209791F7DD24D3940830110509F030
:10344000D12C1BD0B9CFD110BACF0BC08091E422C0
:10345000882309F4B8CF853009F4B9CFA9D08111F8
:10346000BBCF8DD0882391F380E0DF91CF911F9166
:103470000F91FF90EF90DF900895E091EF22F0918F
:10348000F022A091ED22B091EE22AF5BBF4F8C9164
:1034900090E08283938380818D798083E091ED2217
:1034A000F091EE22EF5BFF4F10820895E091EF2242
:1034B000F091F02280818D798083E091ED22F0916E
:1034C000EE22EF5BFF4F108208958091ED229091E4
:1034D000EE22FC01EF5BFF4F208131E0320F3083A1
:1034E000FC01E20FF11D808108952091ED223091C1
:1034F000EE22F901EF5BFF4F908141E0490F4083DD
:10350000F901E90FF11D808308958093F122482F7E
:103510004F7094E8499F900111242E503D4D6091C9
:10352000C6047091C70490E1499FA001112487FF50
:103530000FC02E5B3F4F2093ED223093EE22CA0145
:103540000896860F971F8093EF229093F02208959C
:103550002093ED223093EE22460F571F4093EF2227
:103560005093F02208958091F1228068CEDFE0919F
:10357000EF22F091F02280818695817008958091EC
:10358000F1228F77C2DFE091EF22F091F02280816B
:1035900085FF0CC02091ED223091EE228281938133
:1035A000F901E05CFF4F808381E0089580E0089599
:1035B0008091F1228F77A9DFE091EF22F091F02244
:1035C000808184FF0CC02091ED223091EE22828117
:1035D0009381F901E05CFF4F808381E0089580E0F2
:1035E00008958091F1228F7790DFE091EF22F091A2
:1035F000F02280818D788083E091EF22F091F0229B
:10360000808181608083E091ED22F091EE22EF5B7A
:10361000FF4F10828091F122806877DFE091EF22E6
:10362000F091F022808181608083E091ED22F09121
:10363000EE22EF5BFF4F10820895E091EF22F091B0
:10364000F022818184608183E091EF22F091F02269
:103650008181807C803459F48091F122805855DF3B
:10366000E091EF22F091F0228181846081830895BE
:103670001F93CF93DF931F921F92CDB7DEB7182F02
:103680004A83698342DFE091EF22F091F0221182B8
:10369000E091EF22F091F022812F881F8827881F68
:1036A000880F8083E091EF22F091F022698161839D
:1036B000E091EF22F091F022128213822091ED220C
:1036C0003091EE2224833583110F110B4A8114238C
:1036D000F901E05CFF4F1083F901EF5BFF4F1082AF
:1036E00081E00F900F90DF91CF911F910895CF92BD
:1036F000DF92EF92FF920F931F93CF93DF931F926E
:103700001F92CDB7DEB7E62E6C01F12CFE1409F442
:1037100044C0F60190819923D9F1018112818381FE
:103720002481223010F058E101C058E028E030E058
:1037300040E02017310720F44F5F220F331FF9CFED
:10374000452B292F2F7030E02730310514F080E011
:1037500025C0242F2F7E01341105C8F7882321F0BE
:10376000813021F4206C0EC0206403C020688111D8
:1037700009C0402F622F80E8890F2A83998378DF60
:1037800099812A81402F622F892F72DF8823F9F2D5
:10379000F394F5E0CF0ED11CB9CF81E00F900F90DC
:1037A000DF91CF911F910F91FF90EF90DF90CF901D
:1037B000089580E090E0E091C604F091C7049C0178
:1037C00044E0220F331F4A95E1F7E20FF31F118601
:1037D000E091C604F091C704E20FF31F1182019635
:1037E0008730910541F708958091E52287FD04C057
:1037F000BADE882351F00EC0C2DE811105C080916F
:10380000E4228111F9CF089551CE8091E4228111F3
:10381000EFCF089532CE1F93CF93DF93E091C6048C
:10382000F091C704E059FF4FC081D18114E6809127
:10383000F1228078803851F496DE811105C08091A4
:10384000E422811105C021C080E024C098DEF5CFBC
:103850008530E9F0E091EF22F091F022818182FD44
:1038600018C0E091C604F091C704E059FF4F808171
:1038700091818C179D07D9F22FEF210F112319F099
:10388000EC01122FD4CF84E005C082E003C083E0B6
:1038900001C081E0DF91CF911F91089564D06AD07B
:1038A000E0ECF4E081818E7F818380818F7780835B
:1038B0001092E3220895CF93DF93E0E4F0E01482C6
:1038C0008481836084834FD055D0C0ECD4E088815C
:1038D0008F7788838881806888831092E422109291
:1038E000E0221092E2221092E12288818064888393
:1038F00048E068E480E8BCDE48E068E480E0B8DEE8
:10390000888580648887898181608983DF91CF91F0
:103910000895CF93DF932FB7F894C0ECD1E082E005
:103920008A87EAE1F0E0E491A0ECB4E0DA96EC9367
:10393000DA97EBE1F0E0E491DB96EC93DB971A8603
:103940008FE896E28E7F16968D939C93179786E16B
:103950008C9383E018968C932FBF81E08093E322B1
:10396000DF91CF91A8CFE0ECF4E080858370808771
:1039700011860895E0ECF4E08FEF82878487089544
:103980001F920F920FB60F92112408B60F9218BE15
:1039900009B60F9219BE0BB60F921BBE2F933F9321
:1039A0004F935F936F937F938F939F93AF93BF9347
:1039B000EF93FF938091CA0487FF09C08091C804E8
:1039C00087FF05C080E88093CA040E94C70D8091DC
:1039D000CA0486FF07C080E48093CA041092E422E0
:1039E0000E94900D8091CA0485FF14C080E28093EC
:1039F000CA048091E022882311F084E007C08091FE
:103A0000C304882311F083E001C081E08093E422A5
:103A10000E94890D8091CA0484FF14C080E18093C4
:103A2000CA0482E08093E4221092E0221092C30440
:103A3000C0DE48E068E480E81BDE48E068E480E03F
:103A400017DED1DAFF91EF91BF91AF919F918F91E6
:103A50007F916F915F914F913F912F910F900BBE8E
:103A60000F9009BE0F9008BE0F900FBE0F901F90D1
:103A70001895CF93DF93EC01FC0170968BE0DF018A
:103A80001D928A95E9F782E08C83898783E08E878F
:103A900061E0CE0101962BDE882361F061E0CE016A
:103AA000069625DE882331F061E0CE010B96DF918A
:103AB000CF911DCE80E0DF91CF910895CF93DF931A
:103AC000EB012091E4222430D1F4FC014489558992
:103AD00066897789452B462B472B89F0818115DD37
:103AE000FE0101900020E9F7BF01615071096C1BD4
:103AF0007D0B40E050E0CE01DF91CF91CBCA82E058
:103B0000DF91CF910895CF93FC01C62F8091E422DD
:103B1000843009F54489558966897789452B462B78
:103B2000472BC9F08181F1DC2091ED223091EE220A
:103B3000F901EF5BFF4F9081F901E05CFF4F80815D
:103B4000981720F48C2FD1DC80E006C096DC63DE71
:103B50008823C1F301C082E0CF910895CF93DF9312
:103B60002091E4222430B1F5FC014489558966890D
:103B70007789452B462B472B69F18181C6DC209143
:103B8000F1228091ED229091EE22FC0127FF05C0E9
:103B9000EF5BFF4F208130E00AC0E05CFF4F2081E7
:103BA000FC01EF5BFF4F408130E0241B3109232BE8
:103BB00079F0FC01EF5BFF4FD081FC01E05CFF4F2F
:103BC000C0815BDCDC1720F026DE811104C055DCEF
:103BD00080E001C082E0DF91CF910895CF93DF9321
:103BE000EC018091E422843089F44C895D896E89EE
:103BF0007F89452B462B472B49F0898186DCB3DC36
:103C0000882321F0CE01DF91CF91A8CFDF91CF9112
:103C10000895CF93DF932091E422243019F0C0E07F
:103C2000D0E03EC0FC014489558966897789452BDF
:103C3000462B472BA1F3868168DCA1DC882379F32E
:103C40002091F1228091ED229091EE22FC0127FF3C
:103C500005C0EF5BFF4FC081D0E00AC0E05CFF4FC2
:103C6000C081FC01EF5BFF4F2081D0E0C21BD10976
:103C7000209711F41BDC14C02091F122FC0127FFD6
:103C800005C0EF5BFF4FC081D0E00AC0E05CFF4F92
:103C9000C081FC01EF5BFF4F8081D0E0C81BD109E0
:103CA000CE01DF91CF910895CF93DF932091E4224D
:103CB000243019F08FEF9FEF4AC0FC0144895589E9
:103CC00066897789452B462B472BA1F386811DDC1E
:103CD00056DC882379F38091F1222091ED223091F6
:103CE000EE22F90187FF05C0EF5BFF4F808190E076
:103CF0000AC0E05CFF4F8081F901EF5BFF4F20813C
:103D000090E0821B9109892B21F0DFDBC82FD0E0E6
:103D100002C0CFEFDFEF8091F1222091ED223091B0
:103D2000EE22F90187FF05C0EF5BFF4F808190E035
:103D30000AC0E05CFF4F8081F901EF5BFF4F2081FB
:103D400090E0821B9109892B09F4B0DBCE01DF9151
:103D5000CF9108950895FF920F931F93CF93DF9310
:103D6000EC0126DC882309F48EC0888190E0209144
:103D7000E9223091EA222817390709F084C080919E
:103D8000E622813259F018F4803249F17CC0823247
:103D900009F457C0833209F467C075C08091E522E9
:103DA000813A09F070C01DDCDEDB8823E9F38C89E1
:103DB000FD880E891F8999DB8F2D97DB802F95DB7E
:103DC000812F93DB888D91DB898D8FDB8A8D8DDB55
:103DD00054DBDF91CF911F910F91FF9005CD809122
:103DE000E522813209F04FC0FCDBC9DB811105C03F
:103DF0008091E4228111F9CF46C067DB082F65DB93
:103E0000182F63DBF82E61DB4F2D50E060E070E08F
:103E1000BA0155274427782B402B512B4C8B5D8BB7
:103E20006E8B7F8B52DB888F50DB898F4EDB8A8FC6
:103E30003DDBDADCCE01DF91CF911F910F91FF9036
:103E400089CF8091E5228132F1F4CBDBCDDC80910A
:103E5000E7229091E822888B998BCE01DF91CF9158
:103E60001F910F91FF9076CF8091E522813259F416
:103E7000B8DBBADC6091E722CE01DF91CF911F91D0
:103E80000F91FF9067CFDF91CF911F910F91FF901E
:103E900008956F927F928F929F92AF92BF92CF922E
:103EA000DF92EF92FF920F931F93CF93DF9300D097
:103EB000CDB7DEB77C01ADB6BEB67ADB882309F498
:103EC000D2C0F701808190E02091E9223091EA226E
:103ED0002817390709F0C7C08091E622833009F41A
:103EE00081C030F4813071F0823009F4AAC0BBC0C7
:103EF0008A3009F492C08B3009F480C0893009F00F
:103F0000B2C040C08091E522813A09F0ACC08DB6C4
:103F10009EB619821A828091E7221091E8228B8343
:103F2000F701408550E08DB79EB7841B950B8DBF80
:103F30009EBFEDB7FEB731966F0160E070E0CF0134
:103F400088D34FEF410F8E010F5F1F4F9601BE01C7
:103F50006D5F7F4FC7010E94D30DF7018681978166
:103F6000009721F0408550E0B6016AD380E0CDDAB9
:103F700038DB8B818111B9DA69817A81C60124D954
:103F800095DA2DC08091E522813209F06CC08DB6A2
:103F90009EB60091EB221091EC227090E722609087
:103FA000E8228DB79EB7801B910B8DBF9EBFEDB7EA
:103FB000FEB731966F0115DBB801C60181D95DDA14
:103FC00021E0711001C020E030E0021B130B2C0D2A
:103FD0003D1D4FEF460D672DC7010E94CA0E8DBED5
:103FE0009EBE41C08091E522813A09F03CC0F9DAD9
:103FF000BADA8823E9F3F701818532C08091E5229E
:10400000813289F5EEDAF0DB9091E72281E09111BF
:1040100001C080E0F701818726C08091E5228132CE
:1040200011F5DFDAE1DB8091E7229091E822882721
:1040300036E0969587953A95E1F7F701848795875D
:1040400012C08091E522813A71F4CBDA8CDA8823B0
:10405000E9F3F701848595859695879596958795DB
:1040600044DA0BDAC1DBADBEBEBE2396CDBFDEBFE8
:10407000DF91CF911F910F91FF90EF90DF90CF9044
:10408000BF90AF909F908F907F906F900895FC01AC
:10409000399627E0DF011D922A95E9F721E0FC011E
:1040A000218724EF31E02487358723E0248361E0F2
:1040B00001961DCB5F926F927F928F929F92AF92EB
:1040C000BF92CF92DF92EF92FF920F931F93CF9305
:1040D000DF9300D0CDB7DEB77C01ADB6BEB6809120
:1040E000E422843009F09BC0E091C604F091C7043B
:1040F000E059FF4FD7011A962D913C911B97808173
:1041000091812817390709F48AC011968C91FDD93D
:104110008091ED229091EE22FC01EF5BFF4F208118
:10412000FC01E05CFF4F8081281708F078C08DB655
:104130009EB6F701408550E08DB79EB7841B950B66
:104140008DBF9EBFADB7BEB711966D011B821982A0
:104150001A8260E070E0CD017CD28E010F5F1F4FAC
:10416000960140E0BE016D5F7F4FC7010E94D30DF5
:10417000682EF70184859585892B41F021E086859D
:104180009785892B09F020E0722E01C0712CD70190
:1041900016960D911C9117970115110589F049810B
:1041A0005A81B801C6013FD255245394892B09F492
:1041B000512CF701408550E0B601C80141D201C041
:1041C000512C29813A81232BE9F0611004C0511050
:1041D00002C070FE17C0D7011C968D919C911D974F
:1041E0001E968D939C931F9711968C918ED98B81DF
:1041F00081117BD969817A8140E050E0C6010E943B
:104200004A183BD9E091C604F091C704E059FF4F2A
:1042100080819181F701828793878DBE9EBEADBE5E
:10422000BEBE2396CDBFDEBFDF91CF911F910F9110
:10423000FF90EF90DF90CF90BF90AF909F908F90C6
:104240007F906F905F900895CF93DF93EC01B0D98A
:10425000882339F1888190E02091E9223091EA2287
:1042600028173907F1F48091E6228E3F59F08F3FED
:10427000C1F48091E5228132A1F4B3D9B5DA81E0AD
:1042800088AF0FC08091E522813A59F4AAD96BD941
:104290008823E9F38B85815028D9EFD8DF91CF911E
:1042A000A3CADF91CF910895CF93DF93EC01FC0176
:1042B0003C968DE2DF011D928A95E9F782E08C83BE
:1042C000898761E0CE01019612DA882331F061E03E
:1042D000CE010696DF91CF910ACA80E0DF91CF919F
:1042E0000895DF92EF92FF920F931F93CF93DF9386
:1042F0001F921F92CDB7DEB78C018091E4228430EB
:1043000009F009C1F801868100D939D9D82E88234E
:1043100009F4B1C0F8018681F8D819821A827801AF
:10432000FCE0EF0EF11CAE014F5F5F4F6FE070E0FD
:10433000C7010E949718F801853021F480AD8823C9
:1043400091F399C0448555856685778545355345F4
:104350006244734461F4F801918D8385981738F4B1
:10436000908D9F7121F4928D9150903130F065D9EC
:10437000F8018181CAD861D97EC019821A82780178
:10438000FBE1EF0EF11CF801628D70E0AE014F5FB2
:104390005F4FC7010E949718853029F4F80180AD5E
:1043A000882389F368C082D8DD2009F464C0F8014D
:1043B000808D87FF02C08181A8D8C8010E94C60DE8
:1043C00091E09827F80197AB45E553E562E473E582
:1043D00043A754A765A776A7408951896289738945
:1043E00047A750AB61AB72AB448955896689778921
:1043F00043AB54AB65AB76AB811105C0452B462B67
:10440000472B09F01AD9F80186817FD8E091EF2275
:10441000F091F022818182FF07C00E94F417F80119
:1044200080AD882399F327C0F80181816ED8E0918F
:10443000EF22F091F022818182FF07C00E94F417E1
:10444000F80180AD882399F316C019821A82780189
:10445000FBE2EF0EF11CAE014F5F5F4F6DE070E0CD
:10446000C7010E944A18853029F4F80180AD8823DD
:1044700091F301C002D8F80180AD882309F44BC044
:104480008681E82FEF7087FF07C084E8E89FF0017E
:104490001124EB58FC4D06C084E8E89FF00111247C
:1044A000ED5CFC4D1082F8018181E82FEF7087FFF1
:1044B00007C084E8E89FF0011124EB58FC4D06C0CA
:1044C00084E8E89FF0011124ED5CFC4D1082F801B6
:1044D00086811BD8E091EF22F091F02281818B7FC1
:1044E0008183E091EF22F091F02280818E7F8083A2
:1044F000F80181810AD8E091EF22F091F0228181C8
:104500008B7F8183E091EF22F091F02280818E7F7A
:104510008083F80110AE0F900F90DF91CF911F9123
:104520000F91FF90EF90DF9008956ED0A59F900DB2
:10453000B49F900DA49F800D911D11240895991B87
:1045400079E004C0991F961708F0961B881F7A958A
:10455000C9F780950895A1E21A2EAA1BBB1BFD0185
:104560000DC0AA1FBB1FEE1FFF1FA217B307E40752
:10457000F50720F0A21BB30BE40BF50B661F771FAA
:10458000881F991F1A9469F760957095809590958A
:104590009B01AC01BD01CF0108950F93083090F04D
:1045A000982F872F762F652F542F432F322F2227B6
:1045B0000850F4CF220F331F441F551F661F771F6B
:1045C000881F991F0A95B2F70F91089597FB10F86D
:1045D000169400080F93083098F00850232F342FBA
:1045E000452F562F672F782F892F902DF4CF0594C4
:1045F000979587957795679557954795379527951B
:104600000A95AAF70F910895A29FB001B39FC00128
:10461000A39F700D811D1124911DB29F700D811DEE
:104620001124911D0895FB01DC0104C08D910190BE
:10463000801921F441505040C8F7881B990B089508
:10464000FB01DC0102C001900D9241505040D8F7AF
:104650000895DC0101C06D9341505040E0F708958A
:10466000FB01DC018D91019080190110D9F3990BA8
:104670000895E0ECF1E0A785A7FDFDCFA485A86033
:10468000A4876050704FDCCF03D0808199270895B4
:10469000E0ECF1E0378537FDFDCF348538603487B5
:1046A000FC01E050F04F0895DC01CB0102C02D91D8
:1046B00005D041505040D8F70895262FE0ECF1E0A6
:1046C000378537FDFDCF3485377F3487378531FF18
:1046D00009C036E3328738ED34BF31E033873785A0
:1046E00037FDFDCF33E332878083918312822483A9
:1046F00025E3228728ED31E024BF33870196089512
:04470000F894FFCF5B
:104704000385400000010640000001010000000094
:104714000000000000000000000000000000000095
:104724000000000000000000000000000000000085
:104734000000000000000000000281080000014C9D
:1047440021080000000000000000831000000104A4
:1047540010000001820800000100000000000000B9
:1047640000000000700000000000000A00000000CB
:10477400000000000000454E5354495820202020DA
:1047840020080000000000000000000000000000FD
:104794000000000000004152004500410044004D6B
:1047A400000F007345002E00540058005400000010
:1047B400000000000000524541444D45202054585B
:1047C40054000000000000000000000020084E1209
:1047D4000200000200000000012720000080000207
:1047E4001F0000004C55464100000000656E7374C4
:1047F400697800000000000000000000302E303016
:10480400EB3C906D6B646F736673000002040100EF
:104814000210002000F80100200000000000000049
:104824000000000000002978563412454E535449C4
:1048340058202020202046415431322020200820B6
:0248440008006A
:00000001FF
